:100000000C9482020C94AA020C94AA020C94AA02E8
:100010000C94AA020C94AA020C94AA020C94AA02B0
:100020000C94AA020C94AA020C94AA020C94190A29
:100030000C94AA020C94AA020C94AA020C94AA0290
:100040000C94CF090C94AA020C949D090C94770986
:100050000C94AA020C94AA020C94AA020C94AA0270
:100060000C94AA020C94AA02556E6B6E6F776E20E8
:100070006572726F720041204D49464152452050D1
:1000800049434320726573706F6E646564207769BD
:100090007468204E414B2E00546865204352435FE4
:1000A0004120646F6573206E6F74206D61746368A6
:1000B0002E00496E76616C696420617267756D65AA
:1000C0006E742E00496E7465726E616C206572727A
:1000D0006F7220696E2074686520636F64652E20DE
:1000E00053686F756C64206E6F7420686170706502
:1000F0006E2E004120627566666572206973206EFF
:100100006F742062696720656E6F7567682E005492
:10011000696D656F757420696E20636F6D6D756EA6
:1001200069636174696F6E2E00436F6C6C697373E1
:10013000696F6E2064657465637465642E00457232
:10014000726F7220696E20636F6D6D756E69636189
:1001500074696F6E2E00537563636573732E0000B0
:10016000000000250028002B0000000000240027CC
:10017000002A0000000000230026002900040404D7
:100180000404040404020202020202030303030340
:10019000030102040810204080010204081020011D
:1001A00002040810200000000800020100000304FF
:1001B0000700000000000000005741524E494E4722
:1001C0003A20436F6D6D756E69636174696F6E205F
:1001D0006661696C7572652C20697320746865208E
:1001E0004D4652433532322070726F7065726C79B1
:1001F00020636F6E6E65637465643F00203D202848
:10020000756E6B6E6F776E2900203D20636F756E83
:1002100074657266656974206368697000203D20AA
:1002200076322E3000203D2076312E3000203D20C9
:1002300076302E3000203D2028636C6F6E652900DB
:100240004669726D776172652056657273696F6E6B
:100250003A203078005363616E2050494343207444
:100260006F20736565205549442C2053414B2C2049
:10027000747970652C20616E642064617461206201
:100280006C6F636B732E2E2E002000203000202018
:100290000020002020004D49464152455F526561D3
:1002A000642829206661696C65643A2000506167A2
:1002B00065202030202031202032202033002041B2
:1002C00064723D3078002056616C75653D30780071
:1002D00020496E766572746564206163636573732B
:1002E000206269747320646964206E6F74206D618C
:1002F000746368212000205D200020002000205B26
:100300002000200020002030004D49464152455F2A
:10031000526561642829206661696C65643A200031
:100320005043445F41757468656E746963617465B8
:100330002829206661696C65643A2000202000202D
:10034000002020002020200020202020202020002D
:100350002020200020200020202000536563746F9F
:100360007220426C6F636B202020302020312020CF
:100370003220203320202034202035202036202019
:1003800037202020382020392031302031312020E2
:100390003132203133203134203135202041636324
:1003A0006573734269747300556E6B6E6F776E2060
:1003B000747970650053414B20696E6469636174A0
:1003C000657320554944206973206E6F7420636FF4
:1003D0006D706C6574652E004D4946415245205440
:1003E0004E5033585858004D4946415245204445D7
:1003F0005346697265004D494641524520506C751F
:1004000073004D494641524520556C7472616C69C8
:10041000676874206F7220556C7472616C696768CC
:10042000742043004D494641524520344B42004D13
:10043000494641524520314B42004D4946415245C3
:10044000204D696E692C20333230206279746573D7
:10045000005049434320636F6D706C69616E742076
:10046000776974682049534F2F494543203138300C
:10047000393220284E464329005049434320636FB8
:100480006D706C69616E7420776974682049534F90
:100490002F4945432031343434332D3400504943FF
:1004A0004320747970653A20003000436172642003
:1004B00053414B3A200020002030004361726420F9
:1004C0005549443A0044756D70696E67206D656DDD
:1004D0006F727920636F6E74656E7473206E6F74C3
:1004E00020696D706C656D656E74656420666F72F1
:1004F0002074686174205049434320747970652EDC
:100500000000D50A11241FBECFEFD8E0DEBFCDBF5B
:1005100011E0A0E0B1E0E2E0F3E202C005900D924C
:10052000A639B107D9F722E0A6E9B1E001C01D92D2
:10053000A637B207E1F712E0C2E8D2E004C0219783
:10054000FE010E946511C138D107C9F70E943E0B18
:100550000C947F110C9400008CBD9DBD0895AF924A
:10056000BF92CF92DF92EF92FF920F931F93CF93A0
:10057000DF936C017B018B01040F151FEB015E0102
:10058000AE18BF08C017D10759F06991D601ED9197
:10059000FC910190F081E02DC6010995892B79F736
:1005A000C501DF91CF911F910F91FF90EF90DF90E8
:1005B000CF90BF90AF900895FC01538D448D252FAF
:1005C00030E0842F90E0821B930B541710F0CF96ED
:1005D000089501970895FC01918D828D981761F01F
:1005E000A28DAE0FBF2FB11D5D968C91928D9F5F36
:1005F0009F73928F90E008958FEF9FEF0895FC0115
:10060000918D828D981731F0828DE80FF11D858DC7
:1006100090E008958FEF9FEF0895FC01918D228D5A
:10062000892F90E0805C9F4F821B91098F739927DF
:10063000089581EA91E00E940D0321E0892B09F4DD
:1006400020E0822F089580E090E0892B29F00E941D
:10065000190381110C9400000895FC01A48DA80FCA
:10066000B92FB11DA35ABF4F2C91848D90E00196F4
:100670008F739927848FA689B7892C93A089B18914
:100680008C91837080648C93938D848D981306C0B5
:100690000288F389E02D80818F7D80830895EF9219
:1006A000FF920F931F93CF93DF93EC0181E0888F2C
:1006B0009B8D8C8D98131AC0E889F989808185FFFC
:1006C00015C09FB7F894EE89FF896083E889F9899E
:1006D00080818370806480839FBF81E090E0DF91A0
:1006E000CF911F910F91FF90EF900895F62E0B8DF3
:1006F00010E00F5F1F4F0F731127E02E8C8D8E11AE
:100700000CC00FB607FCFACFE889F989808185FF14
:10071000F5CFCE010E942D03F1CFEB8DEC0FFD2F15
:10072000F11DE35AFF4FF0829FB7F8940B8FEA89CF
:10073000FB8980818062CFCF0F931F93CF93DF938C
:100740008C01D0E0C0E0F801EC0FFD1F649166233E
:1007500041F081EA91E00E944F03892B11F021962C
:10076000F2CFCE01DF91CF911F910F910895CF93DA
:10077000DF93EC01888D8823B9F0AA89BB89E889C9
:10078000F9898C9185FD03C0808186FD0DC00FB66F
:1007900007FCF7CF8C9185FFF2CF808185FFEDCFED
:1007A000CE010E942D03E9CFDF91CF9108958330D0
:1007B00081F028F4813099F08230A9F008958730D3
:1007C000A9F08830C9F08430B1F4809180008F7D29
:1007D00003C0809180008F7780938000089584B556
:1007E0008F7784BD089584B58F7DFBCF8091B00055
:1007F0008F778093B00008958091B0008F7DF9CFFE
:100800001F93CF93DF93282F30E0F901EB55FE4F74
:100810008491F901EF56FE4FD491F901E358FE4F50
:10082000C491CC23A9F0162F81110E94D703EC2F7D
:10083000F0E0EE0FFF1FE15AFE4FA591B4918FB784
:10084000F894EC91111108C0D095DE23DC938FBF92
:10085000DF91CF911F910895DE2BF8CFCF93DF93D7
:1008600090E0FC01EF56FE4F249183589E4FFC010F
:1008700084918823D1F090E0880F991FFC01E759FB
:10088000FE4FA591B491FC01E15AFE4FC591D49160
:1008900061110EC09FB7F8948C91E22FE0958E23E2
:1008A0008C932881E223E8839FBFDF91CF91089545
:1008B0008FB7F894EC91E22BEC938FBFF6CF3FB754
:1008C000F89480919C0190919D01A0919E01B0911E
:1008D0009F0126B5A89B05C02F3F19F00196A11DC9
:1008E000B11D3FBFBA2FA92F982F8827BC01CD017A
:1008F000620F711D811D911D42E0660F771F881FD9
:10090000991F4A95D1F708958F929F92AF92BF9207
:10091000CF92DF92EF92FF924B015C010E945F0445
:100920006B017C010E945F046C197D098E099F098F
:10093000683E734081059105A8F321E0821A910871
:10094000A108B10888EEC80E83E0D81EE11CF11C96
:1009500081149104A104B10429F7FF90EF90DF9076
:10096000CF90BF90AF909F908F900895BC016E5F25
:100970007F4FDC01ED91FC910190F081E02D40E092
:10098000099591E0811190E0892F08958430F1F06C
:1009900050F4813091F030F1823091F0833099F051
:1009A00088E690E008958630B9F098F08730B9F085
:1009B0008F3FB1F786E790E008958EE391E00895C8
:1009C00089E291E008958FE091E0089583EF90E04F
:1009D000089584EC90E0089582EB90E0089588E912
:1009E00090E0089586E591E0089508958EBD000099
:1009F0000DB407FEFDCF8EB50895DF92EF92FF9202
:100A00000F931F93CF93DF937C01062FD42E152FC6
:100A100083E590E00E94AC0260E0F70186850E94C9
:100A2000000482E10E94F604CD2DD12F0C0F1D2F62
:100A3000111DC017D10721F089910E94F604F9CF4A
:100A400061E0F7018685DF91CF911F910F91FF90B3
:100A5000EF90DF900C9400041F93CF93DF93EC0191
:100A6000162F83E590E00E94AC0260E08E850E9424
:100A70000004812F80680E94F60480E00E94F60442
:100A8000182F61E08E850E940004812FDF91CF91A5
:100A90001F9108950F931F93CF93DF93EC01062FBF
:100AA000142F83E590E00E94AC0260E08E850E94E6
:100AB0000004802F0E94F604812F0E94F60461E05A
:100AC0008E85DF91CF911F910F910C940004CF92EE
:100AD000DF92EF92FF920F931F93CF93DF93EC017E
:100AE0006B01142F790140E062E00E944A0544E066
:100AF0006AE0CE010E944A0540E864E1CE010E940E
:100B00004A05A601612FCE010E94FD0443E062E088
:100B1000CE010E944A0508E813E16AE0CE010E9476
:100B20002C0582FF1BC040E062E0CE010E944A0516
:100B300064E4CE010E942C05F701808362E4CE01BB
:100B40000E942C05F701818380E0DF91CF911F91F6
:100B50000F91FF90EF90DF90CF9008950150110911
:100B6000E1F683E0F2CF3F924F925F926F927F92D5
:100B70008F929F92AF92BF92CF92DF92EF92FF92AD
:100B80000F931F93CF93DF9300D0CDB7DEB73C0117
:100B9000162F942E290180E0A114B10411F0F50163
:100BA0008081382C329490EF3922380E40E062E098
:100BB000C3010E944A054FE768E0C3010E944A054D
:100BC00040E864E1C3010E944A05A201602FC3010D
:100BD0000E94FD04432D6AE1C3010E944A05412F92
:100BE00062E0C3010E944A051C3051F46AE1C3016E
:100BF0000E942C05482F40686AE1C3010E944A0503
:100C000000ED17E068E0C3010E942C05982F9921A0
:100C100009F0B3C080FD03C00150110999F783E0CA
:100C200092C0E114F10409F46BC0C114D10409F4B9
:100C300067C064E1C3010E942C05982EF6018081F3
:100C4000891508F494C090829920C9F183E590E059
:100C50000E94AC0260E0F30186850E9400049A9431
:100C600082E90E94F604882099F00FEF10E001C09D
:100C7000000F8A94EAF782E90E94F604902F90957B
:100C8000F701208192238023982B908388248394DA
:100C90008701080D111D891440F482E90E94F604B1
:100CA000F80181938F018394F6CF80E00E94F604CF
:100CB000F801808361E0F30186850E94000468E109
:100CC000C3010E942C058770A114B10411F0F50135
:100CD000808353FC4EC0E114F10409F44CC0C114EC
:100CE000D10409F448C09E89992309F444C0F6014F
:100CF0004081413039F4843009F049C08FEF23C07E
:100D000080E0E7CF423008F442C0811140C0425039
:100D10009E012F5F3F4FB701C3010E9467058111FC
:100D200012C0F6019081E90EF11CF7013297208183
:100D3000998129132CC0F1E0EF1AF108F701208105
:100D40009A81291324C00F900F90DF91CF911F91AA
:100D50000F91FF90EF90DF90CF90BF90AF909F905A
:100D60008F907F906F905F904F903F90089584E0B8
:100D7000EACF82E0E8CF80E0E6CF6CE0C3010E94DA
:100D80002C05582E837109F44CCF81E0DCCF87E02D
:100D9000DACF6F927F928F92AF92BF92CF92DF9213
:100DA000EF92FF920F931F93CF93DF9300D000D069
:100DB000CDB7DEB73C0180E589831A829E012D5FA5
:100DC0003F4F42E0BE016F5F7F4FC3010E94670546
:100DD000182F811118C01F92812CB12CA12CD12C5D
:100DE000C12CF12CE12C04E09E012F5F3F4F40E32A
:100DF0006CE0C3010E94B3050F90833021F0182FDF
:100E0000811101C011E0812F0F900F900F900F9072
:100E1000DF91CF911F910F91FF90EF90DF90CF90D6
:100E2000BF90AF908F907F906F9008950F931F9316
:100E3000CF93DF938C01D62FC42F0E942C05C09531
:100E40004C2F48236D2FC801DF91CF911F910F9137
:100E50000C944A056F927F928F92AF92BF92CF927D
:100E6000DF92EF92FF920F93CF93DF9300D000D0E9
:100E70001F92CDB7DEB73C0182E08D8340E064E293
:100E8000C3010E944A0540E066E2C3010E944A0590
:100E900046E268E4C3010E944A0586E28B838D81A5
:100EA0008230C8F140E86CE1C3010E94160787E078
:100EB0008C831F92812CCE0104965C0101966C01FB
:100EC00004977C0101E09E012D5F3F4F40E36CE001
:100ED000C3010E94B305982F0F90811119C08D8115
:100EE0008230C9F48C81811116C081E00F900F907F
:100EF0000F900F900F90DF91CF910F91FF90EF9097
:100F0000DF90CF90BF90AF908F907F906F900895BB
:100F100081E0923059F380E0E9CF2F923F924F92D7
:100F20005F926F927F928F929F92AF92BF92CF9279
:100F3000DF92EF92FF920F931F93CF93DF93CDB782
:100F4000DEB72E970FB6F894DEBF0FBECDBF06E01A
:100F5000413508F046C14E873B012C0140E86CE169
:100F60000E94160783E989832E85222329F081E0D8
:100F7000F3019081953008F480E0992493941C86C5
:100F80009C85990F990F990F1E85191B17FD10E06D
:100F900032E0882319F098E89B8333E021E0912F19
:100FA000977009F420E0912F959595959595290FC7
:100FB000D1F094E0811193E0291708F4922F2C8549
:100FC000E22FF0E03196E60DF71D232F4191A1E0CD
:100FD000B0E0AC0FBD1FA20FB11D4C932F5F422F8D
:100FE000431B491798F38111185F10320CF484C029
:100FF00080E78A838B819C8189279D8189279E81B7
:1010000089278F839E01285F3F4F47E0BE016F5FB6
:101010007F4FC2010E946705082F8111E2C01A8626
:1010200093E09B871D87FE0137961F0109E08A84A4
:10103000482D4295407F480D6AE1C2010E944A0551
:101040001F92CE010A965C01FE013B966F01710171
:101050009E012F5F3F4F40E36CE0C2010E94B30549
:10106000082F0F90823009F065C06CE1C2010E9428
:101070002C0585FDB6C08F7109F480E2282F30E081
:10108000412F110F550B421753070CF09EC0182F1C
:10109000E22FE595E595E595EF5F922F977081E05A
:1010A00009F480E0E80F81E090E08C0F9D1F8E0F27
:1010B000911DFC01215031092770332781E090E018
:1010C00002C0880F991F2A95E2F79C018081822B2C
:1010D00080838BCF85E98983FE85FF2331F081E012
:1010E000F3019081983008F04BCF80E049CF87E939
:1010F0008983F6E0FC87F9CF912F97709A87812F2B
:101100008595859585958E5F282F2295207F290FBF
:101110002A8301E0911101C000E0080F22242394EA
:10112000312C2C0E3D1E280E311CF9E0F81BFB87DC
:101130001D877DCF811155C010E29D8590320CF442
:1011400057CF8B81883809F042C083E093E02C852B
:10115000E22FF0E03196E60DF71D980FA1E0B0E028
:10116000AC0FBD1FA80FB11D2C9121938F5F891368
:10117000F5CF8B858C87833009F04DC08A8581112E
:101180004AC09E012D5F3F4F41E0B101C2010E9464
:101190006705082F811125C09B81F101818198137A
:1011A0003CC09C818281981338C0808182FF12C02C
:1011B0009394F2E09F1609F48DCF23E0921609F480
:1011C00096CF81E0981609F4CDCE05E00AC082E002
:1011D00094E0BDCFF3018387892D880F980E9394F7
:1011E0009082802F2E960FB6F894DEBF0FBECDBF33
:1011F000DF91CF911F910F91FF90EF90DF90CF90F3
:10120000BF90AF909F908F907F906F905F904F9026
:101210003F902F90089501E0E4CF07E0E2CFFC017A
:1012200001900020E9F73197AF01481B590BBC0131
:1012300081EA91E00C94AF028DE591E00C940F09E6
:10124000CF93DF930E949C03EC010E941C098C0F3A
:101250009D1FDF91CF9108958F929F92AF92BF9281
:101260000F931F93CF93DF93CDB7DEB7A1970FB640
:10127000F894DEBF0FBECDBF19A2423008F44AE099
:101280008E010F5D1F4F842E912CB12CA12CA50136
:1012900094010E940611E62FB901CA01EA30F4F464
:1012A000E05DD801EE938D01232B242B252B79F7BC
:1012B00090E080E0109719F0CD010E940F09A196EF
:1012C0000FB6F894DEBF0FBECDBFDF91CF911F9157
:1012D0000F91BF90AF909F908F900895E95CE1CF00
:1012E000BC01990F880B990B4AE00C942C091F92B2
:1012F0000F920FB60F9211242F933F934F935F934A
:101300006F937F938F939F93AF93BF93EF93FF93CD
:1013100081EA91E00E942D03FF91EF91BF91AF917F
:101320009F918F917F916F915F914F913F912F91FD
:101330000F900FBE0F901F9018951F920F920FB62F
:101340000F9211242F938F939F93EF93FF93E0912C
:10135000B101F091B2018081E091B701F091B80143
:1013600082FD1BC090818091BA018F5F8F732091A5
:10137000BB01821741F0E091BA01F0E0EF55FE4F5A
:10138000958F8093BA01FF91EF919F918F912F914B
:101390000F900FBE0F901F9018958081F4CF1F9271
:1013A0000F920FB60F9211242F933F938F939F9319
:1013B000AF93BF938091980190919901A0919A0168
:1013C000B0919B013091970123E0230F2D3758F501
:1013D0000196A11DB11D20939701809398019093D0
:1013E0009901A0939A01B0939B0180919C019091E7
:1013F0009D01A0919E01B0919F010196A11DB11D7B
:1014000080939C0190939D01A0939E01B0939F01B6
:10141000BF91AF919F918F913F912F910F900FBEF0
:101420000F901F90189526E8230F0296A11DB11D5D
:10143000D2CF1F920F920FB60F9211242F933F938A
:101440004F935F936F937F938F939F93AF93BF93CC
:10145000CF93DF93EF93FF9380919601C091620247
:10146000D0E087FF24C01092850010928400809104
:1014700096018F5F8093960180919601082E000C53
:10148000990B8C179D0724F4809196018C30C4F140
:101490008091840090918500049680349C4908F4E2
:1014A0007AC08091840090918500049676C08091E6
:1014B0009601082E000C990B8C179D07C4F6E0913D
:1014C00096018E2FEE0F990BFC01EE0FFF1FE80F18
:1014D000F91FE25CFD4F808186FFC9CFE091960144
:1014E0008E2FEE0F990BFC01EE0FFF1FE80FF91F77
:1014F000E25CFD4F808160E08F730E940004B7CFF3
:101500002091840030918500E09196018E2FEE0F9E
:10151000990BFC01EE0FFF1FE80FF91FE25CFD4F76
:1015200081819281820F931F90938900809388001C
:10153000E09196018E2FEE0F990BFC01EE0FFF1F2D
:10154000E80FF91FE25CFD4F808186FF11C0E0913A
:1015500096018E2FEE0F990BFC01EE0FFF1FE80F87
:10156000F91FE25CFD4F808161E08F730E940004EF
:10157000FF91EF91DF91CF91BF91AF919F918F91AB
:101580007F916F915F914F913F912F910F900FBE7F
:101590000F901F90189580E49CE9909389008093A8
:1015A00088008FEF80939601E3CF1092A4011092F0
:1015B000A30188EE93E0A0E0B0E08093A5019093B2
:1015C000A601A093A701B093A80185E491E09093B0
:1015D000A2018093A10185EC90E09093AE018093ED
:1015E000AD0184EC90E09093B0018093AF0180EC6A
:1015F00090E09093B2018093B10181EC90E09093E0
:10160000B4018093B30182EC90E09093B601809393
:10161000B50186EC90E09093B8018093B7011092E9
:10162000BA011092BB011092BC011092BD0187E576
:1016300091E090936702809366028AE0809374023F
:1016400089E080937502809162028C3098F491E079
:10165000980F909362028093630290E0FC01EE0F7A
:10166000FF1FE80FF91FE25CFD4F88EB9BE09283C0
:10167000818308958FEF809363020895CF93DF9362
:10168000CDB7DEB7AF970FB6F894DEBF0FBECDBFB4
:10169000789484B5826084BD84B5816084BD85B54D
:1016A000826085BD85B5816085BD80916E00816059
:1016B00080936E00109281008091810082608093FF
:1016C0008100809181008160809381008091800001
:1016D0008160809380008091B10084608093B1002C
:1016E0008091B00081608093B00080917A00846026
:1016F00080937A0080917A00826080937A00809152
:101700007A00816080937A0080917A00806880936B
:101710007A001092C1008091650248E5E42E42E013
:10172000F42EE81AF10887FDF394EE0CFF1CEE0C82
:10173000FF1C8091640208E810E0081B110987FD76
:101740001395000F111F000F111F4801012E000CEF
:10175000AA08BB0897010F2C000C440B550B281945
:1017600039094A095B09AAE5B0E00E94FB1024EBA5
:1017700030E040E050E00E94DC10820E931EA41E78
:10178000B51EE0916302EC30D0F4801691062CF087
:1017900087018E149F040CF4840102501109000F7C
:1017A000111F2FB7F8948E2F90E0FC01EE0FFF1F52
:1017B000E80FF91FE25CFD4F128301832FBF809178
:1017C00063028C3008F051C061E088E00E942E0472
:1017D00080916302282F30E0F901EE0FFF1FE20F26
:1017E000F31FE25CFD4F9081907C98609083109293
:1017F0006402109265022CE0622F0E943711829FD2
:10180000B001112430E020E0AB01420F531FFA0178
:10181000EE0FFF1FE40FF51FE25CFD4F908196FD78
:1018200016C02F5F3F4F2C30310571F781110FC06B
:101830001092800082E080938100109285001092C7
:101840008400B19A80916F00826080936F00E09174
:1018500063028E2F90E0FC01EE0FFF1FE80FF91FCF
:10186000E25CFD4F808180648083E091B101F09162
:10187000B20182E08083E091AD01F091AE0110826F
:10188000E091AF01F091B0018FEC80831092B9012B
:10189000E091B501F091B60186E08083E091B3015B
:1018A000F091B401808180618083E091B301F09177
:1018B000B401808188608083E091B301F091B4012C
:1018C000808180688083E091B301F091B4018081D0
:1018D0008F7D80831FB7F8948091A001811127C06C
:1018E000E7E8F1E08491EBE9F1E09491E82FF0E092
:1018F000EE0FFF1FE759FE4FA591B491EC91E9233C
:1019000021F461E08AE00E94000461E08AE00E9424
:101910002E048CB580618CBD8CB580648CBD61E07B
:101920008DE00E942E0461E08BE00E942E048091E5
:10193000A0018F5F8093A0011FBF61E080917402BE
:101940000E942E0461E0809174020E940004809144
:1019500075028F3F09F4AAC060E00E942E04209116
:10196000750230E0F901EB55FE4F8491F901EF5615
:10197000FE4F0491F901E358FE4F1491111187C0F5
:1019800061E0809175020E942E0460E080917502F2
:101990000E94000483E090E00197F1F761E08091FC
:1019A00075020E94000462E370E080E090E00E9413
:1019B000840440E064E286E692E00E944A0540E04A
:1019C00066E286E692E00E944A0546E268E486E620
:1019D00092E00E944A0540E864E586E692E00E94B3
:1019E0004A0549EA66E586E692E00E944A0543E038
:1019F00068E586E692E00E944A0548EE6AE586E6DA
:101A000092E00E944A0540E46AE286E692E00E9483
:101A10004A054DE362E286E692E00E944A0568E2EA
:101A200086E692E00E942C05982F9370933039F04F
:101A3000482F436068E286E692E00E944A0564E02F
:101A400070E080E090E00E9484046EE686E692E01A
:101A50000E942C05182F80E492E00E949C03612FC5
:101A600070E090E080E040E10E942C098DE292E07D
:101A7000103909F43AC088F589E092E01231A9F1F1
:101A800085E392E0183889F18CEF91E02EC0811146
:101A90000E94D703E12FF0E0EE0FFF1FED58FE4F3D
:101AA000A591B491EC910E2309F46ACF4FE062E066
:101AB00086E692E00E944A0513E062E370E080E06F
:101AC00090E00E94840462E086E692E00E942C0589
:101AD00084FF6FCF115089F76CCF85E292E0113906
:101AE00021F08DE192E0123979F60E94200911501F
:101AF0001E3F20F089EB91E00E94200985E592E0ED
:101B00000E9420099E012B5D3F4F3BA72AA786E636
:101B100092E00E942A07882309F45EC186E692E0DB
:101B20000E94B604382E882309F456C18BEB94E04A
:101B30000E949C03F12C80916802F816D0F40F2DBE
:101B400010E00A591D4FD80113968C91803170F422
:101B500088EB94E00E949C03F801638170E090E0C0
:101B600080E040E10E942C09F394E5CF86EB94E0FD
:101B7000F1CF0E941C098BEA94E00E949C038091A3
:101B80007302803120F489EA94E00E949C03609102
:101B9000730270E090E080E040E10E942C090E9416
:101BA0001C09E0917302EF7710E0E13420F4F0E0DB
:101BB000E050FF4F10818DE994E00E949C0384E285
:101BC00094E01530A9F098F581E594E0123081F0A9
:101BD00038F489E794E0113059F088EA93E008C0BE
:101BE0008AE394E0133021F08FE294E01430A9F7F7
:101BF0000E942009E0917302EF77E13408F0D0C031
:101C0000F0E0E050FF4F9081EFEFE90FE93008F08E
:101C1000C7C0F0E0E25FF14F0C946511D910D91004
:101C20002E0E2E0E2E0E4F10D910D910D91087EE71
:101C300093E01830E9F248F482E094E01630C1F203
:101C400086EF93E01730A1F2C8CF88ED93E019300A
:101C500079F285EB93E01F3F59F2BFCF8FEF8F8F63
:101C600088A389A38AA38BA38CA310E1943021F0CD
:101C700015E0953009F418E28BE593E00E94200905
:101C8000115010320CF0B5C0612E660C660C74E079
:101C9000472E99249A94940C732C212C812F012E79
:101CA000000C990BAA0BBB0B8CA79DA7AEA7BFA7D7
:101CB000592C560C88E493E0772089F087E593E06F
:101CC0001A3014F084E593E00E949C034AE06CA56E
:101CD0007DA58EA59FA50E942C0980E593E00E941A
:101CE0009C0399E0951508F48DC084E493E00E946C
:101CF0009C03652D70E090E080E04AE00E942C0992
:101D00008CE393E00E949C03772009F484C0B0E642
:101D1000BB8B6C8AFE017F96DE015596CF01219127
:101D20002D932AA53BA52E173F07C9F7E09168021E
:101D3000E150FF0BEA59FD4FDE015B9621912D9397
:101D40008A179B07D9F71F92812CB12CA12CD12C7B
:101D5000C12CF12CE12C0CE09E012D5E3F4F40E1A7
:101D60006EE086E692E00E94B305082F0F9088236C
:101D700009F451C080E293E00E949C03802F0E94EE
:101D8000C6040E942009115017FF7BCF86E692E01F
:101D90000E94C90648E060E186E692E00E941607CC
:101DA0000E941C0986E692E00E94C90686E692E03F
:101DB0000E94C90648E060E186E692E00E941607AC
:101DC00080E691E00E940F090E941C0960E375E71C
:101DD00080E090E00E94840480E090E0892B09F488
:101DE00096CE0E941903882309F491CE0E94000028
:101DF0008ECE88E0810F682E629450EF652260E1FC
:101E0000462E47CFA3E681E493E0A51508F06FCFF7
:101E10008FE393E06CCF32E139A780E389835A8264
:101E20009E012D5F3F4F42E0BE016F5F7F4F86E610
:101E300092E00E946705082F811117C091E09F93DF
:101E4000812CB12CA12CDE0199966D01FE013196F9
:101E50007F0104E09F0140E36CE086E692E00E948F
:101E6000B305082F0F90882371F089E093E00E945A
:101E70009C03802F0E94C6040E9420099A943FEF81
:101E8000931216CF80CF9E012F5F3F4F790100E064
:101E9000D7018D917D01803108F0C6C086E093E0C6
:101EA0000E949C03F7013197608170E090E080E030
:101EB00040E10E942C09802F8370833021F482E05E
:101EC00093E00E949C030F5F003111F7772009F423
:101ED0006BC0F8848F2D90E0FC0124E0F595E79528
:101EE0002A95E1F72985B22FBF70DB2E30E0D901AA
:101EF00044E0B595A7954A95E1F77F814D2D50E0D7
:101F0000672F60956F706E171F06A9F4672F70E03A
:101F100004E0759567950A95E1F70FE0602746178D
:101F2000570749F47F2D70957F70772473947A1743
:101F30001B0609F4712CBF01660F771F660F771F10
:101F400064707A01EE0CFF1C7E2D7270672BA170FD
:101F50006A2B6DA325FB662760F90D2D0270602B9F
:101F6000DF01AA0FBB1FA4706A2B6EA326FB662796
:101F700060F9E470E62BBA01759567956270E62BFF
:101F8000EFA3A5E095958795AA95E1F78470220FB8
:101F9000232F221F330B822B559547955595479537
:101FA0004270842B88A7272C24E0421609F43FC0F6
:101FB000892D65E00E944311833009F46EC0082F1B
:101FC000282F880F330B892D092C000C990B0196B3
:101FD00065E070E00E9451112617370749F5E5E2E8
:101FE000F0E0EC0FFD1FE00FF11D8081813019F052
:101FF000863009F04EC0C980DA80EB80FC8086EC28
:1020000092E00E949C0340E1C701B6010E942C09A6
:102010008EEB92E00E949C036D8570E090E080E082
:1020200040E10E942C0935C084E093E039CF092DAE
:102030008EEF92E00E949C03E5E2F0E0EC0FFD1FC2
:10204000E00FF11DF080F2FA882780F990E00E94FD
:1020500070098CEF92E00E949C03F1FA882780F9C6
:1020600090E00E9470098AEF92E00E949C038F2DFD
:10207000817090E00E94700986EF92E00E949C03BC
:10208000222021F080ED92E00E949C03033009F0B1
:10209000A6CF0E941C09712CF1CE03E0C9CF8DEAB6
:1020A00092E00E942009212C312C21013E0181E186
:1020B000680E711C92E19B8BA0E3A9832A829E018A
:1020C0002D5F3F4F42E0BE016F5F7F4F86E692E09B
:1020D0000E946705182F811117C0B1E0BF93812CB2
:1020E000B12CA12CFE0173966F019E012F5F3F4F13
:1020F000790104E040E36CE086E692E00E94B305DB
:10210000182F0F90882351F086E992E00E949C03DB
:10211000812F0E94C6040E94200942CE8E010F5FCB
:102120001F4F5201410139E083E992E0381510F464
:1021300081E992E00E949C034AE0C501B4010E943B
:102140002C098EE892E00E949C03780184E0D82E4E
:10215000D7018D917D01803148F58BE892E00E9496
:102160009C03F7013197608170E090E080E040E1EE
:102170000E942C09DA94D110EBCF0E941C090C5F4D
:102180001F4FBFEF8B1A9B0AAB0ABB0A0615170538
:1021900051F6E4E02E0E311C411C511CF0E12F16CB
:1021A00031044104510409F085CFFACD89E892E069
:1021B000D6CF85EC94E0AFCF052E97FB1EF40094AC
:1021C0000E94F31057FD07D00E94061107FC03D0B0
:1021D0004EF40C94F31050954095309521953F4F57
:1021E0004F4F5F4F089590958095709561957F4F03
:1021F0008F4F9F4F08950E942811A59F900DB49F67
:10220000900DA49F800D911D11240895A1E21A2E16
:10221000AA1BBB1BFD010DC0AA1FBB1FEE1FFF1F8A
:10222000A217B307E407F50720F0A21BB30BE40BDA
:10223000F50B661F771F881F991F1A9469F7609521
:102240007095809590959B01AC01BD01CF010895DB
:10225000A29FB001B39FC001A39F700D811D1124E7
:10226000911DB29F700D811D1124911D0895991B20
:1022700079E004C0991F961708F0961B881F7A957D
:10228000C9F78095089587FB082E062687FD81955E
:1022900067FD61950E9437110EF4919507FC8195B9
:1022A000089597FB072E16F4009407D077FD09D008
:1022B0000E946B1107FC05D03EF4909581959F4FCD
:1022C0000895709561957F4F0895EE0FFF1F05905B
:1022D000F491E02D0994AA1BBB1B51E107C0AA1F72
:1022E000BB1FA617B70710F0A61BB70B881F991FB7
:1022F0005A95A9F780959095BC01CD010895F89461
:02230000FFCF0D
:1023020006090000FF0000000403000000000000B6
:1023120007070000000000000500000000000000A8
:1023220001000000000000000000000000000000AA
:10233200000000000000000000000000000000009B
:1023420002000000004F03AF02DC02B7030D03EBF3
:1023520002FF02000000008D072A07B6040D0A00E2
:1023620044756D702066696E697368656421204EDC
:102372006F7720706C656173652074616B6520797D
:102382006F757220416D6969626F206361726420AA
:0623920061776179210072
:107E0000112484B714BE81FFF0D085E080938100F7
:107E100082E08093C00088E18093C10086E0809377
:107E2000C20080E18093C4008EE0C9D0259A86E02C
:107E300020E33CEF91E0309385002093840096BBD3
:107E4000B09BFECF1D9AA8958150A9F7CC24DD24C4
:107E500088248394B5E0AB2EA1E19A2EF3E0BF2EE7
:107E6000A2D0813461F49FD0082FAFD0023811F036
:107E7000013811F484E001C083E08DD089C08234E0
:107E800011F484E103C0853419F485E0A6D080C0E4
:107E9000853579F488D0E82EFF2485D0082F10E0AE
:107EA000102F00270E291F29000F111F8ED06801E7
:107EB0006FC0863521F484E090D080E0DECF843638
:107EC00009F040C070D06FD0082F6DD080E0C81688
:107ED00080E7D80618F4F601B7BEE895C0E0D1E017
:107EE00062D089930C17E1F7F0E0CF16F0E7DF06D8
:107EF00018F0F601B7BEE89568D007B600FCFDCFD4
:107F0000A601A0E0B1E02C9130E011968C91119780
:107F100090E0982F8827822B932B1296FA010C0160
:107F200087BEE89511244E5F5F4FF1E0A038BF0790
:107F300051F7F601A7BEE89507B600FCFDCF97BE46
:107F4000E89526C08437B1F42ED02DD0F82E2BD052
:107F50003CD0F601EF2C8F010F5F1F4F84911BD097
:107F6000EA94F801C1F70894C11CD11CFA94CF0C13
:107F7000D11C0EC0853739F428D08EE10CD085E9AC
:107F80000AD08FE07ACF813511F488E018D01DD067
:107F900080E101D065CF982F8091C00085FFFCCF94
:107FA0009093C60008958091C00087FFFCCF809118
:107FB000C00084FD01C0A8958091C6000895E0E648
:107FC000F0E098E1908380830895EDDF803219F02E
:107FD00088E0F5DFFFCF84E1DECF1F93182FE3DFCA
:107FE0001150E9F7F2DF1F91089580E0E8DFEE27F6
:047FF000FF270994CA
:027FFE00040479
:0400000300007E007B
:00000001FF
