:100000000C94A6010C94CE010C94CE010C94CE015C
:100010000C94CE010C94CE010C94CE010C94CE0124
:100020000C94CE010C94CE010C94CE010C94CE0A0B
:100030000C94CE010C94CE010C94CE010C94CE0104
:100040000C94840A0C94CE010C94520A0C942C0A41
:100050000C94CE010C94CE010C94CE010C94CE01E4
:100060000C94CE010C94CE014D49464152455F5748
:10007000726974652829206661696C65643A20009C
:10008000202E2E2E0057726974696E67205374619A
:10009000746963204C6F636B2042797465732069C7
:1000A0006E746F20706167652032004D4946415281
:1000B000455F57726974652829206661696C6564BB
:1000C0003A2000202E2E2E0057726974696E672028
:1000D00044796E616D6963204C6F636B2042797463
:1000E000657320696E746F207061676520313330ED
:1000F000004D49464152455F577269746528292071
:100100006661696C65643A2000202E2E2E005772BD
:100110006974696E67206461746120696E746F2010
:10012000706167652000556E6B6E6F776E2065722B
:10013000726F720041204D4946415245205049435B
:100140004320726573706F6E6465642077697468AC
:10015000204E414B2E00546865204352435F41209E
:10016000646F6573206E6F74206D617463682E0018
:10017000496E76616C696420617267756D656E7435
:100180002E00496E7465726E616C206572726F72BA
:1001900020696E2074686520636F64652E20536843
:1001A0006F756C64206E6F742068617070656E2E60
:1001B000004120627566666572206973206E6F74F7
:1001C0002062696720656E6F7567682E0054696DDF
:1001D000656F757420696E20636F6D6D756E6963F0
:1001E0006174696F6E2E00436F6C6C697373696F15
:1001F0006E2064657465637465642E004572726F69
:100200007220696E20636F6D6D756E6963617469CC
:100210006F6E2E00537563636573732E00000000CC
:1002200000250028002B0000000000240027002AE1
:100230000000000000230026002900040404040438
:100240000404040202020202020303030303030183
:10025000020408102040800102040810200102045A
:10026000081020000000080002010000030407003D
:10027000000000000000005741524E494E473A200E
:10028000436F6D6D756E69636174696F6E20666131
:10029000696C7572652C20697320746865204D4601
:1002A00052433532322070726F7065726C79206300
:1002B0006F6E6E65637465643F00203D2028756E27
:1002C0006B6E6F776E2900203D20636F756E7465CD
:1002D0007266656974206368697000203D2076321B
:1002E0002E3000203D2076312E3000203D2076300B
:1002F0002E3000203D2028636C6F6E652900466912
:10030000726D776172652056657273696F6E3A20FF
:1003100030780041726475696E6F20416D69696261
:100320006F207772697465722E2050757420796F12
:100330007572204E46432D74616720746F20746877
:10034000652072656164657200008A0B11241FBE0E
:10035000CFEFD8E0DEBFCDBF14E0A0E0B1E0E0E435
:10036000FDE102C005900D92AA32B107D9F725E050
:10037000AAE2B4E001C01D92AA30B207E1F711E091
:10038000C6EAD1E004C02197FE010E94980EC53A4A
:10039000D107C9F70E94F30B0C949E0E0C94000039
:1003A0008CBD9DBD0895AF92BF92CF92DF92EF9228
:1003B000FF920F931F93CF93DF936C017B018B010F
:1003C000040F151FEB015E01AE18BF08C017D1075F
:1003D00059F06991D601ED91FC910190F081E02DE9
:1003E000C6010995892B79F7C501DF91CF911F913E
:1003F0000F91FF90EF90DF90CF90BF90AF90089556
:10040000FC01538D448D252F30E0842F90E0821B1A
:10041000930B541710F0CF96089501970895FC019F
:10042000918D828D981761F0A28DAE0FBF2FB11DF7
:100430005D968C91928D9F5F9F73928F90E008954F
:100440008FEF9FEF0895FC01918D828D981731F009
:10045000828DE80FF11D858D90E008958FEF9FEF5D
:100460000895FC01918D228D892F90E0805C9F4F33
:10047000821B91098F739927089585E394E00E9468
:10048000310221E0892B09F420E0822F089580E0D9
:1004900090E0892B29F00E943D0281110C9400000C
:1004A0000895FC01A48DA80FB92FB11DA35ABF4F09
:1004B0002C91848D90E001968F739927848FA68963
:1004C000B7892C93A089B1898C91837080648C93B7
:1004D000938D848D981306C00288F389E02D808166
:1004E0008F7D80830895EF92FF920F931F93CF9398
:1004F000DF93EC0181E0888F9B8D8C8D98131AC05F
:10050000E889F989808185FF15C09FB7F894EE8945
:10051000FF896083E889F9898081837080648083A2
:100520009FBF81E090E0DF91CF911F910F91FF90ED
:10053000EF900895F62E0B8D10E00F5F1F4F0F7395
:100540001127E02E8C8D8E110CC00FB607FCFACF50
:10055000E889F989808185FFF5CFCE010E9451029B
:10056000F1CFEB8DEC0FFD2FF11DE35AFF4FF08221
:100570009FB7F8940B8FEA89FB8980818062CFCF87
:100580000F931F93CF93DF938C01D0E0C0E0F8016D
:10059000EC0FFD1F6491662341F085E394E00E9417
:1005A0007302892B11F02196F2CFCE01DF91CF910A
:1005B0001F910F910895CF93DF93EC01888D8823CD
:1005C000B9F0AA89BB89E889F9898C9185FD03C0B6
:1005D000808186FD0DC00FB607FCF7CF8C9185FF9B
:1005E000F2CF808185FFEDCFCE010E945102E9CF8D
:1005F000DF91CF910895833081F028F4813099F014
:100600008230A9F008958730A9F08830C9F084308D
:10061000B1F4809180008F7D03C0809180008F773E
:1006200080938000089584B58F7784BD089584B544
:100630008F7DFBCF8091B0008F778093B0000895BD
:100640008091B0008F7DF9CF1F93CF93DF93282F38
:1006500030E0F901ED59FD4F8491F901E15BFD4F67
:10066000D491F901E55CFD4FC491CC23A9F0162F7C
:1006700081110E94FB02EC2FF0E0EE0FFF1FE35E02
:10068000FD4FA591B4918FB7F894EC91111108C06A
:10069000D095DE23DC938FBFDF91CF911F9108951A
:1006A000DE2BF8CFCF93DF9390E0FC01E15BFD4FB1
:1006B0002491855C9D4FFC0184918823D1F090E0CA
:1006C000880F991FFC01E95DFD4FA591B491FC01D4
:1006D000E35EFD4FC591D49161110EC09FB7F894B0
:1006E0008C91E22FE0958E238C932881E223E8837E
:1006F0009FBFDF91CF9108958FB7F894EC91E22BD3
:10070000EC938FBFF6CF3FB7F8948091300490916F
:100710003104A0913204B091330426B5A89B05C0E2
:100720002F3F19F00196A11DB11D3FBFBA2FA92F70
:10073000982F8827BC01CD01620F711D811D911D6D
:1007400042E0660F771F881F991F4A95D1F70895D9
:100750008F929F92AF92BF92CF92DF92EF92FF92D1
:100760004B015C010E9483036B017C010E948303A7
:100770006C197D098E099F09683E734081059105BA
:10078000A8F321E0821A9108A108B10888EEC80EEA
:1007900083E0D81EE11CF11C81149104A104B10472
:1007A00029F7FF90EF90DF90CF90BF90AF909F9090
:1007B0008F900895BC016E5F7F4FDC01ED91FC913D
:1007C0000190F081E02D40E0099591E0811190E0E9
:1007D000892F08958430F1F050F4813091F030F198
:1007E000823091F0833099F086E291E0089586306E
:1007F000B9F098F08730B9F08F3FB1F784E391E01A
:1008000008958CEF91E0089587EE91E008958DECC6
:1008100091E0089581EB91E0089582E891E00895D8
:1008200080E791E0089586E591E0089584E192E003
:10083000089508958EBD00000DB407FEFDCF8EB55E
:100840000895DF92EF92FF920F931F93CF93DF9360
:100850007C01062FD42E152F83E590E00E94D00155
:1008600060E0F70186850E94240382E10E941A0459
:10087000CD2DD12F0C0F1D2F111DC017D10721F029
:1008800089910E941A04F9CF61E0F7018685DF9112
:10089000CF911F910F91FF90EF90DF900C94240364
:1008A0001F93CF93DF93EC01162F83E590E00E9416
:1008B000D00160E08E850E942403812F80680E9411
:1008C0001A0480E00E941A04182F61E08E850E94AD
:1008D0002403812FDF91CF911F9108950F931F93D0
:1008E000CF93DF93EC01062F142F83E590E00E9455
:1008F000D00160E08E850E942403802F0E941A049C
:10090000812F0E941A0461E08E85DF91CF911F91A3
:100910000F910C942403CF92DF92EF92FF920F93EA
:100920001F93CF93DF93EC016B01142F790140E00B
:1009300062E00E946E0444E06AE0CE010E946E0410
:1009400040E864E1CE010E946E04A601612FCE0151
:100950000E94210443E062E0CE010E946E0408E898
:1009600013E16AE0CE010E94500482FF1BC040E008
:1009700062E0CE010E946E0464E4CE010E94500445
:10098000F701808362E4CE010E945004F701818365
:1009900080E0DF91CF911F910F91FF90EF90DF905A
:1009A000CF90089501501109E1F683E0F2CF3F9214
:1009B0004F925F926F927F928F929F92AF92BF926F
:1009C000CF92DF92EF92FF920F931F93CF93DF931B
:1009D00000D0CDB7DEB74C012B01D42E390180E019
:1009E000E114F10411F0F7018081BC2CB29490EF76
:1009F000B922B80E40E062E0C4010E946E044FE7E5
:100A000068E0C4010E946E0440E864E1C4010E94F1
:100A10006E04A2016D2DC4010E9421044B2D6AE1D8
:100A2000C4010E946E044CE062E0C4010E946E04A6
:100A30006AE1C4010E945004482F40686AE1C40181
:100A40000E946E0420ED422E27E0522E68E0C40181
:100A50000E945004982F907309F0B6C080FD04C026
:100A6000F1E04F1A510891F783E094C061147104CA
:100A700009F46DC00115110509F469C064E1C401F0
:100A80000E945004B82EF80180818B1508F496C09E
:100A9000B082BB20E1F183E590E00E94D00160E0EC
:100AA000F40186850E942403BA9482E90E941A0404
:100AB000CC20B1F08FEF90E09C0102C0220F331FD9
:100AC000CA94E2F7690182E90E941A049C2D90956C
:100AD000F301208192238C21982B9083CC24C39402
:100AE00023014C0C511CCB1440F482E90E941A04DF
:100AF000F20181932F01C394F6CF80E00E941A0483
:100B0000F201808361E0F40186850E94240368E19C
:100B1000C4010E9450048770E114F10411F0F70140
:100B2000808333FC4DC06114710409F44BC001157E
:100B3000110509F447C0AA2009F444C0F801408116
:100B4000413039F4843009F049C08FEF23C080E090
:100B5000E8CF423008F442C0811140C042509E01AB
:100B60002F5F3F4FB301C4010E948B04811112C05B
:100B7000F8019081690E711CF301329720819981EF
:100B800029132CC0F1E06F1A7108F30120819A81BA
:100B9000291324C00F900F90DF91CF911F910F91D7
:100BA000FF90EF90DF90CF90BF90AF909F908F908D
:100BB0007F906F905F904F903F90089584E0EACFD0
:100BC00082E0E8CF80E0E6CF6CE0C4010E945004F0
:100BD000382E837109F44ACF81E0DCCF87E0DACF89
:100BE0000F931F93CF93DF938C01D62FC42F0E94B6
:100BF0005004C0954C2F48236D2FC801DF91CF9131
:100C00001F910F910C946E048F929F92AF92CF928E
:100C1000EF92FF920F931F93CF93DF9300D000D0FA
:100C20001F92CDB7DEB74C0182E08D8340E064E2D5
:100C3000C4010E946E0440E066E2C4010E946E049A
:100C400046E268E4C4010E946E0486E28B838D81D3
:100C50008230B0F140E86CE1C4010E94F00587E009
:100C60008C83A12CC12CCE0104967C018E010B5FDC
:100C70001F4F9E012F5F3F4F41E0BE016D5F7F4FD1
:100C8000C4010E94D704982F811117C08D81823032
:100C9000B9F48C81811114C081E00F900F900F90F6
:100CA0000F900F90DF91CF911F910F91FF90EF90D8
:100CB000CF90AF909F908F90089581E0923069F32C
:100CC00080E0EBCF2F923F924F925F926F927F9294
:100CD0008F929F92AF92BF92CF92DF92EF92FF924C
:100CE0000F931F93CF93DF93CDB7DEB72D970FB63A
:100CF000F894DEBF0FBECDBF16E0413508F045C108
:100D0000342E4B013C0140E86CE10E94F00583E980
:100D10008983332029F081E0F4019081953008F433
:100D200080E022242394B12C9B2D990F990F990FC9
:100D3000D32CD91AD7FCD12C32E0882319F098E8AB
:100D40009B8333E021E09D2D977009F420E09D2DD9
:100D5000959595959595290FC9F094E0811193E0AB
:100D6000291708F4922FEB2DF0E03196E80DF91DCC
:100D7000232F4191A1E0B0E0AC0FBD1FA20FB11D28
:100D80004C932F5F422F431B491798F3882311F090
:100D9000F8E0DF0E8FE18D150CF082C090E79A83AA
:100DA0008B819C8189279D8189279E8189278F83BB
:100DB0009E01285F3F4F47E0BE016F5F7F4FC30139
:100DC0000E948B04182F8111E0C01A86E3E0EB87A4
:100DD000DC86CE0107962C0199E09D87CA844C2DB4
:100DE0004295407F4C0D6AE1C3010E946E04A12C24
:100DF000CE010A967C018E01055F1F4F92014D8541
:100E0000BE016F5F7F4FC3010E94D704182F82304D
:100E100009F065C06CE1C3010E94500485FDB5C0B6
:100E20008F7109F480E2282F30E04D2DDD0C550B39
:100E3000421753070CF09DC0D82EE82FE595E59595
:100E4000E595EF5F982F977081E009F480E0E80F57
:100E500081E090E08C0F9D1F8E0F911DFC012150B1
:100E600031092770332781E090E002C0880F991F75
:100E70002A95E2F79C018081822B80838BCF85E9C4
:100E80008983332031F081E0F4019081983008F0BB
:100E90004BCF80E049CF87E9898326E0B22EF9CF96
:100EA0009D2D97709A878D2D8595859585958E5F5B
:100EB000282F2295207F290F2A8321E0911101C03C
:100EC00020E0280F2D8744244394512C4C0E5D1EA6
:100ED000480E511CE9E0E81BEB87DC867FCF8111CF
:100EE00054C080E2D82E9C8590320CF457CF8B8171
:100EF000883809F040C083E093E0EB2DF0E03196B4
:100F0000E80DF91D980FA1E0B0E0AC0FBD1FA80FD0
:100F1000B11D2C9121938F5F8913F5CFBB84E3E042
:100F2000BE124DC08A8581114AC09E012D5F3F4F80
:100F300041E0B201C3010E948B04182F811125C02A
:100F40009B81F201818198133CC09C81828198131E
:100F500038C0808182FF12C02394F2E02F1609F47A
:100F60008ECF83E0281609F496CF91E0291609F474
:100F7000CECE15E00AC082E094E0BFCFF4018387B3
:100F8000822D880F820D8F5F8083812F2D960FB663
:100F9000F894DEBF0FBECDBFDF91CF911F910F91AF
:100FA000FF90EF90DF90CF90BF90AF909F908F9089
:100FB0007F906F905F904F903F902F90089511E039
:100FC000E4CF17E0E2CFFC0101900020E9F7319770
:100FD000AF01481B590BBC0185E394E00C94D3018D
:100FE00080E493E00C94E307CF93DF930E94C00268
:100FF000EC010E94F0078C0F9D1FDF91CF910895A7
:101000008F929F92AF92BF920F931F93CF93DF93D4
:10101000CDB7DEB7A1970FB6F894DEBF0FBECDBF38
:1010200019A2423008F44AE08E010F5D1F4F842E52
:10103000912CB12CA12CA50194010E945B0EE62FEE
:10104000B901CA01EA30F4F4E05DD801EE938D01F4
:10105000232B242B252B79F790E080E0109719F0B3
:10106000CD010E94E307A1960FB6F894DEBF0FBE34
:10107000CDBFDF91CF911F910F91BF90AF909F9007
:101080008F900895E95CE1CFCF93DF930E94E3074F
:10109000EC010E94F0078C0F9D1FDF91CF91089506
:1010A0000F931F93CF93DF93EC018C010C5F1F4FC5
:1010B00089918031A8F083E493E00E94E307FE0168
:1010C0003197608170E090E080E040E10E9400088C
:1010D000C017D10769F7DF91CF911F910F91089544
:1010E00085E493E0EACFAF92CF92EF92FF920F9315
:1010F0001F93CF93DF93CDB7DEB76A970FB6F894FF
:10110000DEBF0FBECDBF92EA9B8B8C8B84E0FB01D0
:10111000DE01559601900D928A95E1F786E0FE0179
:101120007396DE01119601900D928A95E1F79E016A
:10113000295F3F4F46E0BE016F5F7F4F8AEF94E02B
:101140000E948B04811120C082E18A8F198EA12C0C
:10115000C12CCE0149967C018E01065E1F4F9E0177
:101160002F5F3F4F48E0B9018AEF94E00E94D70417
:1011700081110AC09A8D9130B1F4998D943099F40F
:1011800099819A3009F08FEF6A960FB6F894DEBF16
:101190000FBECDBFDF91CF911F910F91FF90EF90C8
:1011A000CF90AF90089581E0EFCFAF92BF92CF92F2
:1011B000DF92EF92FF920F931F93CF93DF93CDB700
:1011C000DEB7C852D2400FB6F894DEBF0FBECDBF17
:1011D0008AEF94E00E940406882309F476C08AEF1F
:1011E00094E00E94DA03882309F46FC08CE192E056
:1011F000E0E0F1E0DE01119601900D920197E1F738
:101200008E01035F1F4F93E0C92ED12CE12CF12CEE
:101210008EE091E00E94C0024AE0C701B6010E9440
:10122000000889E091E00E94F407C8010E9450087C
:101230000E94F0070115110509F459C0B8018C2D61
:101240000E947308B82E882309F454C081EF90E0FF
:101250000E94C0028B2D0E94EA030E94F40788E4DA
:1012600093E00E94440884E793E00E94440868EEFB
:1012700073E080E090E00E94A8030E94F0078CEBEE
:1012800093E00E94E30768EE73E080E090E00E9444
:10129000A80380ED93E00E94E30768EE73E080E02E
:1012A00090E00E94A80385ED93E00E94E30768EEBA
:1012B00073E080E090E00E94A8030E94F0070E9483
:1012C000F0078AED93E00E944408C85DDD4F0FB639
:1012D000F894DEBF0FBECDBFDF91CF911F910F916C
:1012E000FF90EF90DF90CF90BF90AF90089586E091
:1012F000B82EACCF0E94F0078FEFC81AD80AE80AC0
:10130000F80A0C5F1F4F87E8C816D104E104F10406
:1013100009F07ECF80911C0390911D03A0911E03C4
:10132000B0911F03CF5DDD4F88839983AA83BB8370
:10133000C152D24088EC90E00E94C00283EC90E061
:101340000E94F407CE018F5D9D4F0E9450080E94BD
:10135000F007BE016F5D7D4F82E80E947308182F71
:10136000882349F08BEA90E00E94C002812F0E94FE
:10137000EA030E94F4070E94F007809120039091F5
:101380002103A0912203B0912303CB5DDD4F88831D
:101390009983AA83BB83C552D24085E890E00E941E
:1013A000C00280E890E00E94F407CE018B5D9D4F63
:1013B0000E9450080E94F007BE016B5D7D4F82E0E5
:1013C0000E947308182F882349F088E690E00E9455
:1013D000C002812F0E94EA030E94F4070E94F007D6
:1013E00080E5C35EDD4F8883CD51D240C25EDD4FC4
:1013F0001882CE51D2402DE132E02C0F3D1F2E5FDE
:101400003F4F42E0BE01635E7D4F8AEF94E00E9451
:101410008B04811110C0A12CC12CF12CE12C10E007
:1014200000E030E020E044E0BE01635E7D4F8AEFE3
:1014300094E00E94D70448E060E18AEF94E00E94C3
:10144000F0058AEE93E00E94440860E375E780E0CF
:1014500090E00E94A80339CF1F920F920FB60F920F
:1014600011242F933F934F935F936F937F938F93A9
:101470009F93AF93BF93EF93FF9385E394E00E9414
:101480005102FF91EF91BF91AF919F918F917F9109
:101490006F915F914F913F912F910F900FBE0F90E1
:1014A0001F9018951F920F920FB60F9211242F9331
:1014B0008F939F93EF93FF93E0914504F09146043F
:1014C0008081E0914B04F0914C0482FD1BC090811F
:1014D00080914E048F5F8F7320914F04821741F0EB
:1014E000E0914E04F0E0EB5CFB4F958F80934E044F
:1014F000FF91EF919F918F912F910F900FBE0F90C1
:101500001F9018958081F4CF1F920F920FB60F9203
:1015100011242F933F938F939F93AF93BF93809109
:101520002C0490912D04A0912E04B0912F043091A1
:101530002B0423E0230F2D3758F50196A11DB11D73
:1015400020932B0480932C0490932D04A0932E04BD
:10155000B0932F048091300490913104A091320413
:10156000B09133040196A11DB11D80933004909376
:101570003104A0933204B0933304BF91AF919F9193
:101580008F913F912F910F900FBE0F901F90189544
:1015900026E8230F0296A11DB11DD2CF1F920F92F4
:1015A0000FB60F9211242F933F934F935F936F9336
:1015B0007F938F939F93AF93BF93CF93DF93EF93DB
:1015C000FF9380912A04C091F604D0E087FF24C0E5
:1015D000109285001092840080912A048F5F80937E
:1015E0002A0480912A04082E000C990B8C179D0761
:1015F00024F480912A048C30C4F18091840090916D
:101600008500049680349C4908F47AC08091840057
:1016100090918500049676C080912A04082E000CD3
:10162000990B8C179D07C4F6E0912A048E2FEE0FBC
:10163000990BFC01EE0FFF1FE80FF91FEE52FB4F55
:10164000808186FFC9CFE0912A048E2FEE0F990B7F
:10165000FC01EE0FFF1FE80FF91FEE52FB4F8081D8
:1016600060E08F730E942403B7CF209184003091F3
:101670008500E0912A048E2FEE0F990BFC01EE0FEE
:10168000FF1FE80FF91FEE52FB4F81819281820FFD
:10169000931F9093890080938800E0912A048E2FF5
:1016A000EE0F990BFC01EE0FFF1FE80FF91FEE5232
:1016B000FB4F808186FF11C0E0912A048E2FEE0F30
:1016C000990BFC01EE0FFF1FE80FF91FEE52FB4FC5
:1016D000808161E08F730E942403FF91EF91DF917D
:1016E000CF91BF91AF919F918F917F916F915F91BA
:1016F0004F913F912F910F900FBE0F901F90189513
:1017000080E49CE990938900809388008FEF809318
:101710002A04E3CF109238041092370488EE93E045
:10172000A0E0B0E08093390490933A04A0933B0486
:10173000B0933C0488E293E09093360480933504A0
:1017400085EC90E0909342048093410484EC90E017
:10175000909344048093430480EC90E0909346047B
:101760008093450481EC90E0909348048093470473
:1017700082EC90E090934A048093490486EC90E0D8
:1017800090934C0480934B0410924E0410924F049B
:1017900010925004109251048AE393E09093FB045A
:1017A0008093FA048AE08093080589E08093090514
:1017B0008091F6048C3098F491E0980F9093F604A1
:1017C0008093F70490E0FC01EE0FFF1FE80FF91F74
:1017D000EE52FB4F88EB9BE09283818308958FEF5D
:1017E0008093F7040895789484B5826084BD84B5AD
:1017F000816084BD85B5826085BD85B5816085BD0C
:1018000080916E00816080936E00109281008091C3
:10181000810082608093810080918100816080934B
:101820008100809180008160809380008091B10070
:1018300084608093B1008091B00081608093B0009B
:1018400080917A00846080937A0080917A0082602F
:1018500080937A0080917A00816080937A008091F1
:101860007A00806880937A001092C1008091F90418
:1018700008E512E0081B110987FD1395000F111FE1
:10188000000F111F8091F804C8E8D0E0C81BD109EF
:1018900087FDD395CC0FDD1FCC0FDD1F6E010D2E04
:1018A000000CEE08FF089801012E000C440B550BAC
:1018B0002C193D094E095F09AAE5B0E00E94500EBF
:1018C00024EB30E040E050E00E94310EC20ED31E07
:1018D000E41EF51EE091F704EC30C8F4CC16DD06EA
:1018E0002CF0E801C016D1060CF4E6012297CC0FCB
:1018F000DD1F2FB7F8948E2F90E0FC01EE0FFF1F35
:10190000E80FF91FEE52FB4FD283C1832FBF8091A6
:10191000F7048C3008F051C061E088E00E94520367
:101920008091F704282F30E0F901EE0FFF1FE20F3E
:10193000F31FEE52FB4F9081907C98609083109241
:10194000F8041092F9042CE0622F0E948C0E829F02
:10195000B001112430E020E0AB01420F531FFA0127
:10196000EE0FFF1FE40FF51FEE52FB4F908196FD27
:1019700016C02F5F3F4F2C30310571F781110FC01A
:101980001092800082E08093810010928500109276
:101990008400B19A80916F00826080936F00E09123
:1019A000F7048E2F90E0FC01EE0FFF1FE80FF91FE8
:1019B000EE52FB4F808180648083E0914504F0917A
:1019C000460482E08083E0914104F0914204108259
:1019D000E0914304F09144048FEC808310924D0415
:1019E000E0914904F0914A0486E08083E091470445
:1019F000F0914804808180618083E0914704F091F8
:101A00004804808188608083E0914704F091480415
:101A1000808180688083E0914704F0914804808150
:101A20008F7D8083CFB7F89480913404811127C0D3
:101A3000E5E4F2E08491E9E5F2E09491E82FF0E04A
:101A4000EE0FFF1FE95DFD4FA591B491EC91E923E5
:101A500021F461E08AE00E94240361E08AE00E94B0
:101A600052038CB580618CBD8CB580648CBD61E007
:101A70008DE00E94520361E08BE00E94520380914E
:101A800034048F5F80933404CFBF61E080910805F8
:101A90000E94520361E0809108050E942403809116
:101AA00009058F3F09F4A4C060E00E945203209111
:101AB000090530E0F901ED59FD4F8491F901E15B31
:101AC000FD4FD491F901E55CFD4FC491C11181C076
:101AD00061E0809109050E94520360E08091090550
:101AE0000E94240383E090E00197F1F761E0809188
:101AF00009050E94240362E370E080E090E00E9408
:101B0000A80340E064E28AEF94E00E946E0440E0A3
:101B100066E28AEF94E00E946E0446E268E48AEF8F
:101B200094E00E946E0440E864E58AEF94E00E942D
:101B30006E0449EA66E58AEF94E00E946E0443E091
:101B400068E58AEF94E00E946E0448EE6AE58AEF49
:101B500094E00E946E0440E46AE28AEF94E00E94FE
:101B60006E044DE362E28AEF94E00E946E0468E244
:101B70008AEF94E00E945004982F9370933039F0CC
:101B8000482F436068E28AEF94E00E946E046EE69C
:101B90008AEF94E00E945004C82F8EEF92E00E94DA
:101BA000C0026C2F70E090E080E040E10E940008ED
:101BB0008BEE92E0C03909F43AC088F587EC92E0E8
:101BC000C231A9F183EF92E0C83889F18AEB92E043
:101BD0002EC081110E94FB02EC2FF0E0EE0FFF1FE0
:101BE000EF5CFD4FA591B491EC91ED2309F470CF1A
:101BF0004FE062E08AEF94E00E946E04C3E062E38B
:101C000070E080E090E00E94A80362E08AEF94E038
:101C10000E94500484FF75CFC15089F772CF83EEC4
:101C200092E0C13921F08BED92E0C23979F60E9441
:101C3000F407C150CE3F20F087E792E00E94F407FE
:101C400083E193E00E94F407C0E0D0E00E94D50851
:101C50002097E1F30E943D028823C1F30E94000017
:101C6000F5CF052E97FB1EF400940E94480E57FDF9
:101C700007D00E945B0E07FC03D04EF40C94480E74
:101C800050954095309521953F4F4F4F5F4F0895A8
:101C900090958095709561957F4F8F4F9F4F0895D8
:101CA0000E947D0EA59F900DB49F900DA49F800D66
:101CB000911D11240895A1E21A2EAA1BBB1BFD0140
:101CC0000DC0AA1FBB1FEE1FFF1FA217B307E4071B
:101CD000F50720F0A21BB30BE40BF50B661F771F73
:101CE000881F991F1A9469F7609570958095909553
:101CF0009B01AC01BD01CF010895A29FB001B39F2C
:101D0000C001A39F700D811D1124911DB29F700D04
:101D1000811D1124911D0895991B79E004C0991F1C
:101D2000961708F0961B881F7A95C9F78095089535
:101D3000EE0FFF1F0590F491E02D0994F894FFCF6A
:101D40000449AF6AF2A86480BE480000F110FFEEBB
:101D5000A50000002314DA6A880A27F10BBFEB7391
:101D60005244274055978648C1C56DC199F4541710
:101D700008C2EB79BBE69FEA4A91560E3C87D5F044
:101D8000F047BF04BEDB2E7AC9CCFCC3BBCBF45FEB
:101D9000FC18F6E5032D000100BC0502313231309C
:101DA000F9378DE65295EB5D2406E2FA242FC36CD9
:101DB000FC22144258721BB52AAEA6051610AFD9E4
:101DC00095BE8CEBE963C745D3B2126A81E56B77A8
:101DD0009AFE25F2E40B89E138C83CAB3F1F301274
:101DE00065E9418A7890ABCF91BF9B2D280E2B1EC1
:101DF0003EF1591E8BACB555A85455F1BE2D81133B
:101E0000C441892EBAB660D455C9B3E0334DB04849
:101E1000D48847B7F33D14A14F1F9A03FBF7B0E5F1
:101E2000DDA2E1745C98EEFD15DF8EE93444F6EA3C
:101E3000C9F121103B5E4B8846587271DE623871E1
:101E400044990833E9D5B03D33654D5608082FE66F
:101E5000AE8901F112FED10E408E0A9A11D643BF0F
:101E60006E590BCC25B153C22879F8932644916F53
:101E7000B1428307A8DEF92DD762E427912F18ED30
:101E8000D2E6F755CD4E8B97F30C9F1660AE834D7F
:101E9000A7DA54817CE08516FCB0094375FC17C2B3
:101EA0007A0121D5587449BCF9175ED05FB88BDF31
:101EB000E7C8D26BBC8F1978D75179DE687BEC4EBE
:101EC0005FCCE2563EB56AACE3003CC72330AC4180
:101ED00045BABCCAB7402DCBC6A65C5849121D07EF
:101EE000E4D4E28408EFD7308C48965196200E95C2
:101EF000F03248F8993B0417C1DA1FDD6B51942486
:101F0000E822C5D7602280DD9DAF7992F126DC689A
:101F10007ACAF77B0C96AC5E372B84A8A5A4C09D2B
:101F20004F0658FF55F0CF240F97FBA9DB5E3BBD52
:101F30006CF1E1A1C21BF5DD738E33B18500901702
:101F40003AE2AE7E2FDD73EB000000BD000000041E
:101F50005F00000011523C7D8080000001000FBD39
:101F60000FE00FE0000000007302D3010002DB026B
:101F700031020F0223020000000062060406DA03A9
:101F80000D0A0020002030005772697465207072BD
:101F90006F63657373206661696C65642C20706C77
:101FA0006561736520747279206F6E6365206D6F53
:101FB00072652E00596F75722074616720697320F5
:101FC0007374696C6C2066696E652C206A75737415
:101FD0002072656D6F766520697420616E64207073
:101FE0007574206261636B20616761696E20696E40
:101FF0002033207365636F6E64732E004E65772007
:10200000617474656D707420696E20332E2E2E00FD
:10201000322E2E2E00312E2E2E0052656164792034
:10202000746F2077726974652E0057726974652029
:1020300070726F636573732066696E697368656437
:1020400021204E6F7720706C656173652074616B21
:102050006520796F757220416D6969626F206361D7
:0A20600072642061776179210000AD
:00000001FF
